:020000040800F2
:10000000680600200D0200084B0200084D0200089F
:100010004F020008510200085302000800000000CF
:100020000000000000000000000000005502000871
:1000300057020008000000005902000821040008CF
:100040005D0200085D0200085D0200085D02000814
:100050005D0200085D0200085D0200085D02000804
:100060005D0200085D0200085D0200085D020008F4
:100070005D0200085D0200085D0200085D020008E4
:100080005D0200085D0200085D0200085D020008D4
:100090005D0200085D0200085D0200085D020008C4
:1000A0005D0200085D0200085D0200085D020008B4
:1000B0005D0200085D0200085D0200085D020008A4
:1000C0005D0200085D0200085D0200085D02000894
:1000D0005D0200085D0200085D0200085D02000884
:1000E000150300085D0200085D0200085D020008BB
:1000F0005D0200085D0200085D0200085D02000864
:100100005D0200085D0200085D0200085D02000853
:100110005D0200085D0200085D0200085D02000843
:100120005D0200085D0200085D0200085D02000833
:100130005D0200085D0200085D0200085D02000823
:100140005D0200085D0200085D0200085D02000813
:100150005D0200085D0200085D0200085D02000803
:100160005D0200085D0200085D0200085D020008F3
:100170005D0200085D0200085D020008000000004A
:100180005D0200085D02000800F002F800F02EF8A1
:100190000AA090E8000C82448344AAF10107DA45E2
:1001A00001D100F023F8AFF2090EBAE80F0013F006
:1001B000010F18BFFB1A43F0010318471804000091
:1001C000280400000023002400250026103A28BF40
:1001D00078C1FBD8520728BF30C148BF0B607047B9
:1001E0001FB500F0E9F91FBD10B510BD00F057F8BC
:1001F0001146FFF7F5FF00F0C1F900F075F803B400
:10020000FFF7F2FF03BC00F07DF800001748184923
:10021000184B99423CBF50F8042B41F8042BF8D3FB
:10022000154B16494FF000028B4238BF43F8042BA0
:10023000FAD3DFF84C00016841F470010160BFF3AC
:100240004F8FBFF36F8F0F480047FEE7FEE7FEE7D3
:10025000FEE7FEE7FEE7FEE7FEE7FEE7FEE700005B
:1002600009480A490A4A0B4B70470000E405000898
:100270000000002000000020000000206806002090
:1002800088ED00E089010008680000206806002071
:10029000680200206802002070477047704775466A
:1002A00000F02CF8AE4605006946534620F00700E2
:1002B000854618B020B5FFF7D3FFBDE820404FF0CA
:1002C00000064FF000074FF000084FF0000BAC465F
:1002D000ACE8C009ACE8C009ACE8C009ACE8C009AA
:1002E00021F007018D46704710B50446AFF300803A
:1002F0002046BDE81040FFF782BF0000004870476D
:100300000000002001491820ABBEFEE726000200D5
:100310007047000080B540F21440C4F2010000684C
:10032000800400287BD5FFE740F21441C4F20101AC
:10033000086840F40050086040F26000C2F200001B
:100340000168013101600068072807DBFFE740F220
:100350006001C2F2000100200860FFE740F2600087
:10036000C2F20000006828B9FFE741F6A17000F072
:100370005BF853E040F26000C2F200000068012820
:1003800005D1FFE743F6A33000F04EF845E040F218
:100390006000C2F200000068022805D1FFE743F2C6
:1003A000255000F041F837E040F26000C2F2000052
:1003B0000068032805D1FFE742F6597000F034F8D1
:1003C00029E040F26000C2F200000068042805D174
:1003D000FFE742F6C54000F027F81BE040F260005E
:1003E000C2F200000068052805D1FFE742F2DC7088
:1003F00000F01AF80DE040F26000C2F20000006860
:10040000062805D1FFE742F2833000F00DF8FFE740
:10041000FFE7FFE7FFE7FFE7FFE7FFE7FFE780BD55
:1004200080B500F0B9F880BD81B000904EF21001A7
:10043000CEF20001086820F0010008600098013841
:100440004EF21402CEF2000210604EF21802CEF20A
:10045000000200201060086840F002000860086890
:1004600040F004000860086840F00100086001B036
:100470007047000081B08DF803009DF9030000284B
:100480000ED4FFE79DF9031001F01F0201209040F8
:100490004A094EF20011CEF2000141F82200FFE7B6
:1004A00001B0704780B52820FFF7E4FF41F26001FA
:1004B000C4F20201086840F0010008601421C4F28F
:1004C0000101086820F070000860086840F0200012
:1004D000086040F20041C4F20101086840F4005095
:1004E000086040F20841C4F20101086840F400507D
:1004F000086040F20C41C4F20101086820F4005089
:10050000086080BD41F24C01C4F20201086840F06D
:100510000400086040F60001C4F60001086820F0FD
:100520004060086040F60C01C4F60001086820F045
:10053000406008607047000041F24C01C4F20201C3
:10054000086840F0010008604FF09041086820F40E
:1005500040600860086840F4806008600421C4F6C8
:100560000001086820F0200008600C21C4F600019A
:10057000086820F4406008607047000080B582B0D1
:1005800000200190FFF7D8FF00F00EF8FFF7BAFF48
:10059000FFF788FFFFE7FEE71421C4F600010868B3
:1005A00080F02000086070471421C4F6000108683C
:1005B00040F0200008607047F1EE100A4FF6FF711E
:1005C000C0F2C03120EA010040F04070E1EE100AB4
:1005D00070470000E40500080000002068060000E5
:0405E000C40100084A
:040000050800018965
:00000001FF
