:020000040800F2
:10000000700600200D0200084B0200084D02000897
:100010004F020008510200085302000800000000CF
:100020000000000000000000000000005502000871
:10003000570200080000000059020008B50300083C
:100040005D0200085D0200085D0200085D02000814
:100050005D0200085D0200085D0200085D02000804
:10006000550300085D0200085D0200085D020008FB
:100070005D0200085D0200085D0200085D020008E4
:100080005D0200085D020008150300085D0200081B
:100090005D0200085D0200085D0200085D020008C4
:1000A0005D0200085D0200085D0200085D020008B4
:1000B0005D0200085D0200085D0200085D020008A4
:1000C0005D0200085D0200085D0200085D02000894
:1000D0005D0200085D0200085D0200085D02000884
:1000E0005D0200085D0200085D0200085D02000874
:1000F0005D0200085D0200085D0200085D02000864
:100100005D0200085D0200085D0200085D02000853
:100110005D0200085D0200085D0200085D02000843
:100120005D0200085D0200085D0200085D02000833
:100130005D0200085D0200085D0200085D02000823
:100140005D0200085D0200085D0200085D02000813
:100150005D0200085D0200085D0200085D02000803
:100160005D0200085D0200085D0200085D020008F3
:100170005D0200085D0200085D020008000000004A
:100180005D0200085D02000800F002F800F02EF8A1
:100190000AA090E8000C82448344AAF10107DA45E2
:1001A00001D100F023F8AFF2090EBAE80F0013F006
:1001B000010F18BFFB1A43F0010318477005000038
:1001C000800500000023002400250026103A28BFE7
:1001D00078C1FBD8520728BF30C148BF0B607047B9
:1001E0001FB500F095FA1FBD10B510BD00F057F80F
:1001F0001146FFF7F5FF00F0EFF900F075F803B4D2
:10020000FFF7F2FF03BC00F07DF800001748184923
:10021000184B99423CBF50F8042B41F8042BF8D3FB
:10022000154B16494FF000028B4238BF43F8042BA0
:10023000FAD3DFF84C00016841F470010160BFF3AC
:100240004F8FBFF36F8F0F480047FEE7FEE7FEE7D3
:10025000FEE7FEE7FEE7FEE7FEE7FEE7FEE700005B
:1002600009480A490A4A0B4B704700003C0700083E
:100270000000002000000020000000207006002088
:1002800088ED00E089010008700000207006002061
:10029000700200207002002070477047704775465A
:1002A00000F02CF8AE4605006946534620F00700E2
:1002B000854618B020B5FFF7D3FFBDE820404FF0CA
:1002C00000064FF000074FF000084FF0000BAC465F
:1002D000ACE8C009ACE8C009ACE8C009ACE8C009AA
:1002E00021F007018D46704710B50446AFF300803A
:1002F0002046BDE81040FFF782BF0000004870476D
:100300000000002001491820ABBEFEE726000200D5
:10031000704700000020C5F2040000684007002874
:1003200017D5FFE70021C5F20401086840F004007A
:1003300008604020C5F20400006840F26401C2F287
:100340000001086040F26001C2F200010120087063
:10035000FFE7704780B540F21440C4F20100006826
:10036000400700280FD5FFE740F21441C4F2010115
:10037000086840F00400086000F09AF900F0A0F965
:1003800000F0BEF9FFE74AF22010C0F2070000F0CB
:1003900011F900F0A5F900F093F900F099F9FFF7D1
:1003A000B9FF40F26400C2F20000006800F002F9F8
:1003B00080BD000080B582B040F26800C2F200004B
:1003C0000068019040B1FFE70198012807D0FFE7DE
:1003D0000198022806D008E000F06AF905E000F074
:1003E00077F902E000F06CF9FFE702B080BD000091
:1003F00081B08DF803009DF9030000280ED4FFE7BB
:100400009DF9031001F01F02012090404A094EF2AD
:100410000011CEF2000141F82200FFE701B0704761
:1004200080B50820FFF7E4FF41F26001C4F2020149
:10043000086840F0010008600821C4F20101086862
:1004400020F4E0600860086840F40070086040F242
:100450000042C4F20102106840F40050106040F203
:100460000841C4F20101086840F40050086040F2FD
:100470000C43C4F20103186820F40050186010689F
:1004800040F004001060086840F00400086080BD7F
:1004900041F24C01C4F20201086840F0010008601A
:1004A0004FF09041086820F440600860086840F40C
:1004B000806008600421C4F60001086820F0200074
:1004C00008600C21C4F60001086820F44060086050
:1004D0007047000041F24C01C4F20201086840F08C
:1004E000010008604FF09041086820F44040086027
:1004F000086840F4804008600421C4F600010868E0
:1005000020F0800008600C21C4F60001086820F487
:10051000404008607047000041F24C01C4F2020103
:10052000086840F0010008604FF09041086820F42E
:1005300040500860086840F4805008600421C4F608
:100540000001086820F0400008600C21C4F600019A
:10055000086820F4405008607047000041F24C01E8
:10056000C4F20201086840F00400086040F600018F
:10057000C4F60001086820F03000086040F60C0165
:10058000C4F60001086820F03000086070470000E1
:1005900082B0019000200090FFE700980199884206
:1005A00005D2FFE7FFE7009801300090F5E702B0C1
:1005B0007047000082B0019000200090FFE7009893
:1005C0000199884205D2FFE7FFE7009801300090CB
:1005D000F5E702B07047000080B582B000200190BE
:1005E000FFF756FFFFF798FFFFF774FF00F060F882
:1005F00000F06EF800F064F8FFF7B0FFFFF710FFAF
:10060000FFE740F26800C2F200000068A8B9FFE707
:1006100000F066F800F054F800F05AF84AF22010A2
:10062000C0F20700FFF7B4FFFFF7C4FE40F2680115
:10063000C2F2000101200860FFE740F26800C2F248
:1006400000000068012815D1FFE700F059F800F01C
:100650002FF800F035F84AF22010C0F20700FFF73B
:1006600097FFFFF7A7FE40F26801C2F200010220E7
:100670000860FFE740F26800C2F20000006802284C
:1006800015D1FFE700F034F800F012F800F020F880
:100690004AF22010C0F20700FFF77AFFFFF78AFE48
:1006A00040F26801C2F2000100200860FFE7A8E7FD
:1006B0001421C4F60001086840F02000086070476B
:1006C0001421C4F60001086840F0800008607047FB
:1006D0001421C4F60001086840F04000086070472B
:1006E0001421C4F60001086820F02000086070475B
:1006F0001421C4F60001086820F0800008607047EB
:100700001421C4F60001086820F04000086070471A
:10071000F1EE100A4FF6FF71C0F2C03120EA01007D
:1007200040F04070E1EE100A704700003C070008FE
:0C0730000000002070060000C40100085A
:040000050800018965
:00000001FF
