:020000040800F2
:10000000600600200D0200084B0200084D020008A7
:100010004F020008510200085302000800000000CF
:100020000000000000000000000000005502000871
:100030005702000800000000590200085B02000897
:100040005D0200085D0200085D0200085D02000814
:100050005D0200085D0200085D0200085D02000804
:100060005D0200085D0200085D0200085D020008F4
:100070005D0200085D0200085D0200085D020008E4
:100080005D0200085D0200085D0200085D020008D4
:100090005D0200085D0200085D0200085D020008C4
:1000A0005D0200085D0200085D0200085D020008B4
:1000B0005D0200085D0200085D0200085D020008A4
:1000C0005D0200085D0200085D0200085D02000894
:1000D0005D0200085D0200085D0200085D02000884
:1000E0005D0200085D0200085D0200085D02000874
:1000F0005D0200085D0200085D0200085D02000864
:100100005D0200085D0200085D0200085D02000853
:100110005D0200085D0200085D0200085D02000843
:100120005D0200085D0200085D0200085D02000833
:100130005D0200085D0200085D0200085D02000823
:100140005D0200085D0200085D0200085D02000813
:100150005D0200085D0200085D0200085D02000803
:100160005D0200085D0200085D0200085D020008F3
:100170005D0200085D0200085D020008000000004A
:100180005D0200085D02000800F002F800F02EF8A1
:100190000AA090E8000C82448344AAF10107DA45E2
:1001A00001D100F023F8AFF2090EBAE80F0013F006
:1001B000010F18BFFB1A43F001031847100200009B
:1001C000200200000023002400250026103A28BF4A
:1001D00078C1FBD8520728BF30C148BF0B607047B9
:1001E0001FB500F0E5F81FBD10B510BD00F057F8C1
:1001F0001146FFF7F5FF00F0AFF800F075F803B413
:10020000FFF7F2FF03BC00F07DF800001748184923
:10021000184B99423CBF50F8042B41F8042BF8D3FB
:10022000154B16494FF000028B4238BF43F8042BA0
:10023000FAD3DFF84C00016841F470010160BFF3AC
:100240004F8FBFF36F8F0F480047FEE7FEE7FEE7D3
:10025000FEE7FEE7FEE7FEE7FEE7FEE7FEE700005B
:1002600009480A490A4A0B4B70470000DC030008A2
:100270000000002000000020000000206006002098
:1002800088ED00E089010008600000206006002081
:10029000600200206002002070477047704775467A
:1002A00000F02CF8AE4605006946534620F00700E2
:1002B000854618B020B5FFF7D3FFBDE820404FF0CA
:1002C00000064FF000074FF000084FF0000BAC465F
:1002D000ACE8C009ACE8C009ACE8C009ACE8C009AA
:1002E00021F007018D46704710B50446AFF300803A
:1002F0002046BDE81040FFF782BF0000004870476D
:100300000000002001491820ABBEFEE726000200D5
:100310007047000041F24C01C4F20201086840F04D
:10032000010008604FF09041086820F440600860C8
:10033000086840F4806008600421C4F60001086881
:1003400020F0200008600C21C4F60001086800F4C9
:10035000406008607047000080B582B000200190C6
:10036000FFF7D8FF00F01CF8FFE700200090FFE740
:10037000009848F29F61C0F20101884205DCFFE766
:10038000FFE7009801300090F2E700F001F8ECE799
:100390001421C4F60001086880F02000086070474E
:1003A0001421C4F60001086840F02000086070477E
:1003B000F1EE100A4FF6FF71C0F2C03120EA0100E1
:1003C00040F04070E1EE100A70470000DC030008C6
:0C03D0000000002060060000C4010008CE
:040000050800018965
:00000001FF
